{
  "_format": "hh-sol-artifact-1",
  "contractName": "BITToken",
  "sourceName": "contracts/BITToken.sol",
  "abi": [
    {
      "inputs": [
        {
          "internalType": "uint256",
          "name": "initialSupply",
          "type": "uint256"
        }
      ],
      "stateMutability": "nonpayable",
      "type": "constructor"
    },
    {
      "inputs": [
        {
          "internalType": "address",
          "name": "spender",
          "type": "address"
        },
        {
          "internalType": "uint256",
          "name": "allowance",
          "type": "uint256"
        },
        {
          "internalType": "uint256",
          "name": "needed",
          "type": "uint256"
        }
      ],
      "name": "ERC20InsufficientAllowance",
      "type": "error"
    },
    {
      "inputs": [
        {
          "internalType": "address",
          "name": "sender",
          "type": "address"
        },
        {
          "internalType": "uint256",
          "name": "balance",
          "type": "uint256"
        },
        {
          "internalType": "uint256",
          "name": "needed",
          "type": "uint256"
        }
      ],
      "name": "ERC20InsufficientBalance",
      "type": "error"
    },
    {
      "inputs": [
        {
          "internalType": "address",
          "name": "approver",
          "type": "address"
        }
      ],
      "name": "ERC20InvalidApprover",
      "type": "error"
    },
    {
      "inputs": [
        {
          "internalType": "address",
          "name": "receiver",
          "type": "address"
        }
      ],
      "name": "ERC20InvalidReceiver",
      "type": "error"
    },
    {
      "inputs": [
        {
          "internalType": "address",
          "name": "sender",
          "type": "address"
        }
      ],
      "name": "ERC20InvalidSender",
      "type": "error"
    },
    {
      "inputs": [
        {
          "internalType": "address",
          "name": "spender",
          "type": "address"
        }
      ],
      "name": "ERC20InvalidSpender",
      "type": "error"
    },
    {
      "anonymous": false,
      "inputs": [
        {
          "indexed": true,
          "internalType": "address",
          "name": "owner",
          "type": "address"
        },
        {
          "indexed": true,
          "internalType": "address",
          "name": "spender",
          "type": "address"
        },
        {
          "indexed": false,
          "internalType": "uint256",
          "name": "value",
          "type": "uint256"
        }
      ],
      "name": "Approval",
      "type": "event"
    },
    {
      "anonymous": false,
      "inputs": [
        {
          "indexed": true,
          "internalType": "address",
          "name": "from",
          "type": "address"
        },
        {
          "indexed": true,
          "internalType": "address",
          "name": "to",
          "type": "address"
        },
        {
          "indexed": false,
          "internalType": "uint256",
          "name": "value",
          "type": "uint256"
        }
      ],
      "name": "Transfer",
      "type": "event"
    },
    {
      "inputs": [
        {
          "internalType": "address",
          "name": "owner",
          "type": "address"
        },
        {
          "internalType": "address",
          "name": "spender",
          "type": "address"
        }
      ],
      "name": "allowance",
      "outputs": [
        {
          "internalType": "uint256",
          "name": "",
          "type": "uint256"
        }
      ],
      "stateMutability": "view",
      "type": "function"
    },
    {
      "inputs": [
        {
          "internalType": "address",
          "name": "spender",
          "type": "address"
        },
        {
          "internalType": "uint256",
          "name": "value",
          "type": "uint256"
        }
      ],
      "name": "approve",
      "outputs": [
        {
          "internalType": "bool",
          "name": "",
          "type": "bool"
        }
      ],
      "stateMutability": "nonpayable",
      "type": "function"
    },
    {
      "inputs": [
        {
          "internalType": "address",
          "name": "account",
          "type": "address"
        }
      ],
      "name": "balanceOf",
      "outputs": [
        {
          "internalType": "uint256",
          "name": "",
          "type": "uint256"
        }
      ],
      "stateMutability": "view",
      "type": "function"
    },
    {
      "inputs": [
        {
          "internalType": "address",
          "name": "target",
          "type": "address"
        },
        {
          "internalType": "uint256",
          "name": "tokens",
          "type": "uint256"
        }
      ],
      "name": "burnTokens",
      "outputs": [],
      "stateMutability": "nonpayable",
      "type": "function"
    },
    {
      "inputs": [],
      "name": "burner",
      "outputs": [
        {
          "internalType": "address",
          "name": "",
          "type": "address"
        }
      ],
      "stateMutability": "view",
      "type": "function"
    },
    {
      "inputs": [
        {
          "internalType": "uint256",
          "name": "tokens",
          "type": "uint256"
        }
      ],
      "name": "claimTokens",
      "outputs": [],
      "stateMutability": "nonpayable",
      "type": "function"
    },
    {
      "inputs": [],
      "name": "decimals",
      "outputs": [
        {
          "internalType": "uint8",
          "name": "",
          "type": "uint8"
        }
      ],
      "stateMutability": "view",
      "type": "function"
    },
    {
      "inputs": [],
      "name": "getUsers",
      "outputs": [
        {
          "components": [
            {
              "internalType": "address",
              "name": "addr",
              "type": "address"
            },
            {
              "internalType": "uint256",
              "name": "balance",
              "type": "uint256"
            }
          ],
          "internalType": "struct Leaderboard.User[]",
          "name": "",
          "type": "tuple[]"
        }
      ],
      "stateMutability": "view",
      "type": "function"
    },
    {
      "inputs": [
        {
          "internalType": "uint256",
          "name": "",
          "type": "uint256"
        }
      ],
      "name": "holders",
      "outputs": [
        {
          "internalType": "address",
          "name": "",
          "type": "address"
        }
      ],
      "stateMutability": "view",
      "type": "function"
    },
    {
      "inputs": [],
      "name": "name",
      "outputs": [
        {
          "internalType": "string",
          "name": "",
          "type": "string"
        }
      ],
      "stateMutability": "view",
      "type": "function"
    },
    {
      "inputs": [],
      "name": "owner",
      "outputs": [
        {
          "internalType": "address",
          "name": "",
          "type": "address"
        }
      ],
      "stateMutability": "view",
      "type": "function"
    },
    {
      "inputs": [
        {
          "internalType": "address[]",
          "name": "users",
          "type": "address[]"
        },
        {
          "internalType": "uint256[]",
          "name": "tokens",
          "type": "uint256[]"
        }
      ],
      "name": "rewardTokens",
      "outputs": [],
      "stateMutability": "nonpayable",
      "type": "function"
    },
    {
      "inputs": [
        {
          "internalType": "address",
          "name": "_burner",
          "type": "address"
        }
      ],
      "name": "setBurner",
      "outputs": [],
      "stateMutability": "nonpayable",
      "type": "function"
    },
    {
      "inputs": [],
      "name": "symbol",
      "outputs": [
        {
          "internalType": "string",
          "name": "",
          "type": "string"
        }
      ],
      "stateMutability": "view",
      "type": "function"
    },
    {
      "inputs": [],
      "name": "totalSupply",
      "outputs": [
        {
          "internalType": "uint256",
          "name": "",
          "type": "uint256"
        }
      ],
      "stateMutability": "view",
      "type": "function"
    },
    {
      "inputs": [
        {
          "internalType": "address",
          "name": "to",
          "type": "address"
        },
        {
          "internalType": "uint256",
          "name": "value",
          "type": "uint256"
        }
      ],
      "name": "transfer",
      "outputs": [
        {
          "internalType": "bool",
          "name": "",
          "type": "bool"
        }
      ],
      "stateMutability": "nonpayable",
      "type": "function"
    },
    {
      "inputs": [
        {
          "internalType": "address",
          "name": "from",
          "type": "address"
        },
        {
          "internalType": "address",
          "name": "to",
          "type": "address"
        },
        {
          "internalType": "uint256",
          "name": "value",
          "type": "uint256"
        }
      ],
      "name": "transferFrom",
      "outputs": [
        {
          "internalType": "bool",
          "name": "",
          "type": "bool"
        }
      ],
      "stateMutability": "nonpayable",
      "type": "function"
    }
  ],
  "bytecode": "0x608060405234801561000f575f80fd5b50604051612332380380612332833981810160405281019061003191906103ea565b6040518060400160405280601181526020017f427261696e20496e64657820546f6b656e0000000000000000000000000000008152506040518060400160405280600381526020017f424954000000000000000000000000000000000000000000000000000000000081525081600390816100ac9190610646565b5080600490816100bc9190610646565b5050503360055f6101000a81548173ffffffffffffffffffffffffffffffffffffffff021916908373ffffffffffffffffffffffffffffffffffffffff16021790555061010f338261011560201b60201c565b5061082a565b5f73ffffffffffffffffffffffffffffffffffffffff168273ffffffffffffffffffffffffffffffffffffffff1603610185575f6040517fec442f0500000000000000000000000000000000000000000000000000000000815260040161017c9190610754565b60405180910390fd5b6101965f838361019a60201b60201c565b5050565b5f73ffffffffffffffffffffffffffffffffffffffff168373ffffffffffffffffffffffffffffffffffffffff16036101ea578060025f8282546101de919061079a565b925050819055506102b8565b5f805f8573ffffffffffffffffffffffffffffffffffffffff1673ffffffffffffffffffffffffffffffffffffffff1681526020019081526020015f2054905081811015610273578381836040517fe450d38c00000000000000000000000000000000000000000000000000000000815260040161026a939291906107dc565b60405180910390fd5b8181035f808673ffffffffffffffffffffffffffffffffffffffff1673ffffffffffffffffffffffffffffffffffffffff1681526020019081526020015f2081905550505b5f73ffffffffffffffffffffffffffffffffffffffff168273ffffffffffffffffffffffffffffffffffffffff16036102ff578060025f8282540392505081905550610349565b805f808473ffffffffffffffffffffffffffffffffffffffff1673ffffffffffffffffffffffffffffffffffffffff1681526020019081526020015f205f82825401925050819055505b8173ffffffffffffffffffffffffffffffffffffffff168373ffffffffffffffffffffffffffffffffffffffff167fddf252ad1be2c89b69c2b068fc378daa952ba7f163c4a11628f55a4df523b3ef836040516103a69190610811565b60405180910390a3505050565b5f80fd5b5f819050919050565b6103c9816103b7565b81146103d3575f80fd5b50565b5f815190506103e4816103c0565b92915050565b5f602082840312156103ff576103fe6103b3565b5b5f61040c848285016103d6565b91505092915050565b5f81519050919050565b7f4e487b71000000000000000000000000000000000000000000000000000000005f52604160045260245ffd5b7f4e487b71000000000000000000000000000000000000000000000000000000005f52602260045260245ffd5b5f600282049050600182168061049057607f821691505b6020821081036104a3576104a261044c565b5b50919050565b5f819050815f5260205f209050919050565b5f6020601f8301049050919050565b5f82821b905092915050565b5f600883026105057fffffffffffffffffffffffffffffffffffffffffffffffffffffffffffffffff826104ca565b61050f86836104ca565b95508019841693508086168417925050509392505050565b5f819050919050565b5f61054a610545610540846103b7565b610527565b6103b7565b9050919050565b5f819050919050565b61056383610530565b61057761056f82610551565b8484546104d6565b825550505050565b5f90565b61058b61057f565b61059681848461055a565b505050565b5b818110156105b9576105ae5f82610583565b60018101905061059c565b5050565b601f8211156105fe576105cf816104a9565b6105d8846104bb565b810160208510156105e7578190505b6105fb6105f3856104bb565b83018261059b565b50505b505050565b5f82821c905092915050565b5f61061e5f1984600802610603565b1980831691505092915050565b5f610636838361060f565b9150826002028217905092915050565b61064f82610415565b67ffffffffffffffff8111156106685761066761041f565b5b6106728254610479565b61067d8282856105bd565b5f60209050601f8311600181146106ae575f841561069c578287015190505b6106a6858261062b565b86555061070d565b601f1984166106bc866104a9565b5f5b828110156106e3578489015182556001820191506020850194506020810190506106be565b8683101561070057848901516106fc601f89168261060f565b8355505b6001600288020188555050505b505050505050565b5f73ffffffffffffffffffffffffffffffffffffffff82169050919050565b5f61073e82610715565b9050919050565b61074e81610734565b82525050565b5f6020820190506107675f830184610745565b92915050565b7f4e487b71000000000000000000000000000000000000000000000000000000005f52601160045260245ffd5b5f6107a4826103b7565b91506107af836103b7565b92508282019050808211156107c7576107c661076d565b5b92915050565b6107d6816103b7565b82525050565b5f6060820190506107ef5f830186610745565b6107fc60208301856107cd565b61080960408301846107cd565b949350505050565b5f6020820190506108245f8301846107cd565b92915050565b611afb806108375f395ff3fe608060405234801561000f575f80fd5b5060043610610108575f3560e01c80632ec951c0116100a05780638da5cb5b1161006f5780638da5cb5b146102b657806395d89b41146102d4578063a9059cbb146102f2578063a996d6ce14610322578063dd62ed3e1461033e57610108565b80632ec951c014610230578063313ce5671461024c57806346e04a2f1461026a57806370a082311461028657610108565b806318160ddd116100dc57806318160ddd1461019457806323b872dd146101b257806327810b6e146101e25780632a11ced01461020057610108565b8062ce8e3e1461010c57806306fdde031461012a578063095ea7b3146101485780630d1118ce14610178575b5f80fd5b61011461036e565b60405161012191906113da565b60405180910390f35b6101326104e3565b60405161013f919061146a565b60405180910390f35b610162600480360381019061015d91906114ef565b610573565b60405161016f9190611547565b60405180910390f35b610192600480360381019061018d91906114ef565b610595565b005b61019c6105a3565b6040516101a9919061156f565b60405180910390f35b6101cc60048036038101906101c79190611588565b6105ac565b6040516101d99190611547565b60405180910390f35b6101ea6105da565b6040516101f791906115e7565b60405180910390f35b61021a60048036038101906102159190611600565b6105ff565b60405161022791906115e7565b60405180910390f35b61024a6004803603810190610245919061182b565b61063a565b005b610254610876565b60405161026191906118bc565b60405180910390f35b610284600480360381019061027f9190611600565b61087e565b005b6102a0600480360381019061029b91906118d5565b61098f565b6040516102ad919061156f565b60405180910390f35b6102be6109d4565b6040516102cb91906115e7565b60405180910390f35b6102dc6109f9565b6040516102e9919061146a565b60405180910390f35b61030c600480360381019061030791906114ef565b610a89565b6040516103199190611547565b60405180910390f35b61033c600480360381019061033791906118d5565b610aab565b005b61035860048036038101906103539190611900565b610b7d565b604051610365919061156f565b60405180910390f35b60605f60088054905067ffffffffffffffff8111156103905761038f61162f565b5b6040519080825280602002602001820160405280156103c957816020015b6103b6611280565b8152602001906001900390816103ae5790505b5090505f5b6008805490508110156104db57600881815481106103ef576103ee61193e565b5b905f5260205f20015f9054906101000a900473ffffffffffffffffffffffffffffffffffffffff1682828151811061042a5761042961193e565b5b60200260200101515f019073ffffffffffffffffffffffffffffffffffffffff16908173ffffffffffffffffffffffffffffffffffffffff16815250506104ab6008828154811061047e5761047d61193e565b5b905f5260205f20015f9054906101000a900473ffffffffffffffffffffffffffffffffffffffff1661098f565b8282815181106104be576104bd61193e565b5b6020026020010151602001818152505080806001019150506103ce565b508091505090565b6060600380546104f290611998565b80601f016020809104026020016040519081016040528092919081815260200182805461051e90611998565b80156105695780601f1061054057610100808354040283529160200191610569565b820191905f5260205f20905b81548152906001019060200180831161054c57829003601f168201915b5050505050905090565b5f8061057d610bff565b905061058a818585610c06565b600191505092915050565b61059f8282610c18565b5050565b5f600254905090565b5f806105b6610bff565b90506105c3858285610c97565b6105ce858585610d29565b60019150509392505050565b60065f9054906101000a900473ffffffffffffffffffffffffffffffffffffffff1681565b6008818154811061060e575f80fd5b905f5260205f20015f915054906101000a900473ffffffffffffffffffffffffffffffffffffffff1681565b60055f9054906101000a900473ffffffffffffffffffffffffffffffffffffffff1673ffffffffffffffffffffffffffffffffffffffff163373ffffffffffffffffffffffffffffffffffffffff16146106c9576040517f08c379a00000000000000000000000000000000000000000000000000000000081526004016106c090611a12565b60405180910390fd5b5f5b8251811015610871576107128382815181106106ea576106e961193e565b5b60200260200101518383815181106107055761070461193e565b5b6020026020010151610e19565b60075f8483815181106107285761072761193e565b5b602002602001015173ffffffffffffffffffffffffffffffffffffffff1673ffffffffffffffffffffffffffffffffffffffff1681526020019081526020015f205f9054906101000a900460ff166107f557600883828151811061078f5761078e61193e565b5b6020026020010151908060018154018082558091505060019003905f5260205f20015f9091909190916101000a81548173ffffffffffffffffffffffffffffffffffffffff021916908373ffffffffffffffffffffffffffffffffffffffff1602179055505b600160075f85848151811061080d5761080c61193e565b5b602002602001015173ffffffffffffffffffffffffffffffffffffffff1673ffffffffffffffffffffffffffffffffffffffff1681526020019081526020015f205f6101000a81548160ff02191690831515021790555080806001019150506106cb565b505050565b5f6012905090565b6108883382610e19565b60075f3373ffffffffffffffffffffffffffffffffffffffff1673ffffffffffffffffffffffffffffffffffffffff1681526020019081526020015f205f9054906101000a900460ff1661093757600833908060018154018082558091505060019003905f5260205f20015f9091909190916101000a81548173ffffffffffffffffffffffffffffffffffffffff021916908373ffffffffffffffffffffffffffffffffffffffff1602179055505b600160075f3373ffffffffffffffffffffffffffffffffffffffff1673ffffffffffffffffffffffffffffffffffffffff1681526020019081526020015f205f6101000a81548160ff02191690831515021790555050565b5f805f8373ffffffffffffffffffffffffffffffffffffffff1673ffffffffffffffffffffffffffffffffffffffff1681526020019081526020015f20549050919050565b60055f9054906101000a900473ffffffffffffffffffffffffffffffffffffffff1681565b606060048054610a0890611998565b80601f0160208091040260200160405190810160405280929190818152602001828054610a3490611998565b8015610a7f5780601f10610a5657610100808354040283529160200191610a7f565b820191905f5260205f20905b815481529060010190602001808311610a6257829003601f168201915b5050505050905090565b5f80610a93610bff565b9050610aa0818585610d29565b600191505092915050565b60055f9054906101000a900473ffffffffffffffffffffffffffffffffffffffff1673ffffffffffffffffffffffffffffffffffffffff163373ffffffffffffffffffffffffffffffffffffffff1614610b3a576040517f08c379a0000000000000000000000000000000000000000000000000000000008152600401610b3190611a12565b60405180910390fd5b8060065f6101000a81548173ffffffffffffffffffffffffffffffffffffffff021916908373ffffffffffffffffffffffffffffffffffffffff16021790555050565b5f60015f8473ffffffffffffffffffffffffffffffffffffffff1673ffffffffffffffffffffffffffffffffffffffff1681526020019081526020015f205f8373ffffffffffffffffffffffffffffffffffffffff1673ffffffffffffffffffffffffffffffffffffffff1681526020019081526020015f2054905092915050565b5f33905090565b610c138383836001610e98565b505050565b5f73ffffffffffffffffffffffffffffffffffffffff168273ffffffffffffffffffffffffffffffffffffffff1603610c88575f6040517f96c6fd1e000000000000000000000000000000000000000000000000000000008152600401610c7f91906115e7565b60405180910390fd5b610c93825f83611067565b5050565b5f610ca28484610b7d565b90507fffffffffffffffffffffffffffffffffffffffffffffffffffffffffffffffff8114610d235781811015610d14578281836040517ffb8f41b2000000000000000000000000000000000000000000000000000000008152600401610d0b93929190611a30565b60405180910390fd5b610d2284848484035f610e98565b5b50505050565b5f73ffffffffffffffffffffffffffffffffffffffff168373ffffffffffffffffffffffffffffffffffffffff1603610d99575f6040517f96c6fd1e000000000000000000000000000000000000000000000000000000008152600401610d9091906115e7565b60405180910390fd5b5f73ffffffffffffffffffffffffffffffffffffffff168273ffffffffffffffffffffffffffffffffffffffff1603610e09575f6040517fec442f05000000000000000000000000000000000000000000000000000000008152600401610e0091906115e7565b60405180910390fd5b610e14838383611067565b505050565b5f73ffffffffffffffffffffffffffffffffffffffff168273ffffffffffffffffffffffffffffffffffffffff1603610e89575f6040517fec442f05000000000000000000000000000000000000000000000000000000008152600401610e8091906115e7565b60405180910390fd5b610e945f8383611067565b5050565b5f73ffffffffffffffffffffffffffffffffffffffff168473ffffffffffffffffffffffffffffffffffffffff1603610f08575f6040517fe602df05000000000000000000000000000000000000000000000000000000008152600401610eff91906115e7565b60405180910390fd5b5f73ffffffffffffffffffffffffffffffffffffffff168373ffffffffffffffffffffffffffffffffffffffff1603610f78575f6040517f94280d62000000000000000000000000000000000000000000000000000000008152600401610f6f91906115e7565b60405180910390fd5b8160015f8673ffffffffffffffffffffffffffffffffffffffff1673ffffffffffffffffffffffffffffffffffffffff1681526020019081526020015f205f8573ffffffffffffffffffffffffffffffffffffffff1673ffffffffffffffffffffffffffffffffffffffff1681526020019081526020015f20819055508015611061578273ffffffffffffffffffffffffffffffffffffffff168473ffffffffffffffffffffffffffffffffffffffff167f8c5be1e5ebec7d5bd14f71427d1e84f3dd0314c0f7b2291e5b200ac8c7c3b92584604051611058919061156f565b60405180910390a35b50505050565b5f73ffffffffffffffffffffffffffffffffffffffff168373ffffffffffffffffffffffffffffffffffffffff16036110b7578060025f8282546110ab9190611a92565b92505081905550611185565b5f805f8573ffffffffffffffffffffffffffffffffffffffff1673ffffffffffffffffffffffffffffffffffffffff1681526020019081526020015f2054905081811015611140578381836040517fe450d38c00000000000000000000000000000000000000000000000000000000815260040161113793929190611a30565b60405180910390fd5b8181035f808673ffffffffffffffffffffffffffffffffffffffff1673ffffffffffffffffffffffffffffffffffffffff1681526020019081526020015f2081905550505b5f73ffffffffffffffffffffffffffffffffffffffff168273ffffffffffffffffffffffffffffffffffffffff16036111cc578060025f8282540392505081905550611216565b805f808473ffffffffffffffffffffffffffffffffffffffff1673ffffffffffffffffffffffffffffffffffffffff1681526020019081526020015f205f82825401925050819055505b8173ffffffffffffffffffffffffffffffffffffffff168373ffffffffffffffffffffffffffffffffffffffff167fddf252ad1be2c89b69c2b068fc378daa952ba7f163c4a11628f55a4df523b3ef83604051611273919061156f565b60405180910390a3505050565b60405180604001604052805f73ffffffffffffffffffffffffffffffffffffffff1681526020015f81525090565b5f81519050919050565b5f82825260208201905092915050565b5f819050602082019050919050565b5f73ffffffffffffffffffffffffffffffffffffffff82169050919050565b5f611300826112d7565b9050919050565b611310816112f6565b82525050565b5f819050919050565b61132881611316565b82525050565b604082015f8201516113425f850182611307565b506020820151611355602085018261131f565b50505050565b5f611366838361132e565b60408301905092915050565b5f602082019050919050565b5f611388826112ae565b61139281856112b8565b935061139d836112c8565b805f5b838110156113cd5781516113b4888261135b565b97506113bf83611372565b9250506001810190506113a0565b5085935050505092915050565b5f6020820190508181035f8301526113f2818461137e565b905092915050565b5f81519050919050565b5f82825260208201905092915050565b8281835e5f83830152505050565b5f601f19601f8301169050919050565b5f61143c826113fa565b6114468185611404565b9350611456818560208601611414565b61145f81611422565b840191505092915050565b5f6020820190508181035f8301526114828184611432565b905092915050565b5f604051905090565b5f80fd5b5f80fd5b6114a4816112f6565b81146114ae575f80fd5b50565b5f813590506114bf8161149b565b92915050565b6114ce81611316565b81146114d8575f80fd5b50565b5f813590506114e9816114c5565b92915050565b5f806040838503121561150557611504611493565b5b5f611512858286016114b1565b9250506020611523858286016114db565b9150509250929050565b5f8115159050919050565b6115418161152d565b82525050565b5f60208201905061155a5f830184611538565b92915050565b61156981611316565b82525050565b5f6020820190506115825f830184611560565b92915050565b5f805f6060848603121561159f5761159e611493565b5b5f6115ac868287016114b1565b93505060206115bd868287016114b1565b92505060406115ce868287016114db565b9150509250925092565b6115e1816112f6565b82525050565b5f6020820190506115fa5f8301846115d8565b92915050565b5f6020828403121561161557611614611493565b5b5f611622848285016114db565b91505092915050565b5f80fd5b7f4e487b71000000000000000000000000000000000000000000000000000000005f52604160045260245ffd5b61166582611422565b810181811067ffffffffffffffff821117156116845761168361162f565b5b80604052505050565b5f61169661148a565b90506116a2828261165c565b919050565b5f67ffffffffffffffff8211156116c1576116c061162f565b5b602082029050602081019050919050565b5f80fd5b5f6116e86116e3846116a7565b61168d565b9050808382526020820190506020840283018581111561170b5761170a6116d2565b5b835b81811015611734578061172088826114b1565b84526020840193505060208101905061170d565b5050509392505050565b5f82601f8301126117525761175161162b565b5b81356117628482602086016116d6565b91505092915050565b5f67ffffffffffffffff8211156117855761178461162f565b5b602082029050602081019050919050565b5f6117a86117a38461176b565b61168d565b905080838252602082019050602084028301858111156117cb576117ca6116d2565b5b835b818110156117f457806117e088826114db565b8452602084019350506020810190506117cd565b5050509392505050565b5f82601f8301126118125761181161162b565b5b8135611822848260208601611796565b91505092915050565b5f806040838503121561184157611840611493565b5b5f83013567ffffffffffffffff81111561185e5761185d611497565b5b61186a8582860161173e565b925050602083013567ffffffffffffffff81111561188b5761188a611497565b5b611897858286016117fe565b9150509250929050565b5f60ff82169050919050565b6118b6816118a1565b82525050565b5f6020820190506118cf5f8301846118ad565b92915050565b5f602082840312156118ea576118e9611493565b5b5f6118f7848285016114b1565b91505092915050565b5f806040838503121561191657611915611493565b5b5f611923858286016114b1565b9250506020611934858286016114b1565b9150509250929050565b7f4e487b71000000000000000000000000000000000000000000000000000000005f52603260045260245ffd5b7f4e487b71000000000000000000000000000000000000000000000000000000005f52602260045260245ffd5b5f60028204905060018216806119af57607f821691505b6020821081036119c2576119c161196b565b5b50919050565b7f4f574e45525f4f4e4c59000000000000000000000000000000000000000000005f82015250565b5f6119fc600a83611404565b9150611a07826119c8565b602082019050919050565b5f6020820190508181035f830152611a29816119f0565b9050919050565b5f606082019050611a435f8301866115d8565b611a506020830185611560565b611a5d6040830184611560565b949350505050565b7f4e487b71000000000000000000000000000000000000000000000000000000005f52601160045260245ffd5b5f611a9c82611316565b9150611aa783611316565b9250828201905080821115611abf57611abe611a65565b5b9291505056fea26469706673582212207b98f1b8a29711dc675a0796b1f745d9cd189ded8000ea4db0d1de042f09a0dc64736f6c634300081a0033",
  "linkReferences": {},
  "deployedLinkReferences": {}
}