{
  "_format": "hh-sol-artifact-1",
  "contractName": "BrainNFT",
  "sourceName": "contracts/BrainNFT.sol",
  "abi": [
    {
      "inputs": [
        {
          "internalType": "address",
          "name": "bitToken_",
          "type": "address"
        },
        {
          "internalType": "string",
          "name": "baseURI_",
          "type": "string"
        }
      ],
      "stateMutability": "nonpayable",
      "type": "constructor"
    },
    {
      "inputs": [
        {
          "internalType": "address",
          "name": "sender",
          "type": "address"
        },
        {
          "internalType": "uint256",
          "name": "tokenId",
          "type": "uint256"
        },
        {
          "internalType": "address",
          "name": "owner",
          "type": "address"
        }
      ],
      "name": "ERC721IncorrectOwner",
      "type": "error"
    },
    {
      "inputs": [
        {
          "internalType": "address",
          "name": "operator",
          "type": "address"
        },
        {
          "internalType": "uint256",
          "name": "tokenId",
          "type": "uint256"
        }
      ],
      "name": "ERC721InsufficientApproval",
      "type": "error"
    },
    {
      "inputs": [
        {
          "internalType": "address",
          "name": "approver",
          "type": "address"
        }
      ],
      "name": "ERC721InvalidApprover",
      "type": "error"
    },
    {
      "inputs": [
        {
          "internalType": "address",
          "name": "operator",
          "type": "address"
        }
      ],
      "name": "ERC721InvalidOperator",
      "type": "error"
    },
    {
      "inputs": [
        {
          "internalType": "address",
          "name": "owner",
          "type": "address"
        }
      ],
      "name": "ERC721InvalidOwner",
      "type": "error"
    },
    {
      "inputs": [
        {
          "internalType": "address",
          "name": "receiver",
          "type": "address"
        }
      ],
      "name": "ERC721InvalidReceiver",
      "type": "error"
    },
    {
      "inputs": [
        {
          "internalType": "address",
          "name": "sender",
          "type": "address"
        }
      ],
      "name": "ERC721InvalidSender",
      "type": "error"
    },
    {
      "inputs": [
        {
          "internalType": "uint256",
          "name": "tokenId",
          "type": "uint256"
        }
      ],
      "name": "ERC721NonexistentToken",
      "type": "error"
    },
    {
      "anonymous": false,
      "inputs": [
        {
          "indexed": true,
          "internalType": "address",
          "name": "owner",
          "type": "address"
        },
        {
          "indexed": true,
          "internalType": "address",
          "name": "approved",
          "type": "address"
        },
        {
          "indexed": true,
          "internalType": "uint256",
          "name": "tokenId",
          "type": "uint256"
        }
      ],
      "name": "Approval",
      "type": "event"
    },
    {
      "anonymous": false,
      "inputs": [
        {
          "indexed": true,
          "internalType": "address",
          "name": "owner",
          "type": "address"
        },
        {
          "indexed": true,
          "internalType": "address",
          "name": "operator",
          "type": "address"
        },
        {
          "indexed": false,
          "internalType": "bool",
          "name": "approved",
          "type": "bool"
        }
      ],
      "name": "ApprovalForAll",
      "type": "event"
    },
    {
      "anonymous": false,
      "inputs": [
        {
          "indexed": false,
          "internalType": "uint256",
          "name": "_fromTokenId",
          "type": "uint256"
        },
        {
          "indexed": false,
          "internalType": "uint256",
          "name": "_toTokenId",
          "type": "uint256"
        }
      ],
      "name": "BatchMetadataUpdate",
      "type": "event"
    },
    {
      "anonymous": false,
      "inputs": [
        {
          "indexed": false,
          "internalType": "uint256",
          "name": "_tokenId",
          "type": "uint256"
        }
      ],
      "name": "MetadataUpdate",
      "type": "event"
    },
    {
      "anonymous": false,
      "inputs": [
        {
          "indexed": true,
          "internalType": "address",
          "name": "from",
          "type": "address"
        },
        {
          "indexed": true,
          "internalType": "address",
          "name": "to",
          "type": "address"
        },
        {
          "indexed": true,
          "internalType": "uint256",
          "name": "tokenId",
          "type": "uint256"
        }
      ],
      "name": "Transfer",
      "type": "event"
    },
    {
      "inputs": [],
      "name": "BRONZE_THRESHOLD",
      "outputs": [
        {
          "internalType": "uint256",
          "name": "",
          "type": "uint256"
        }
      ],
      "stateMutability": "view",
      "type": "function"
    },
    {
      "inputs": [],
      "name": "CLAIM_NFT_REWARD",
      "outputs": [
        {
          "internalType": "uint256",
          "name": "",
          "type": "uint256"
        }
      ],
      "stateMutability": "view",
      "type": "function"
    },
    {
      "inputs": [],
      "name": "GOLD_THRESHOLD",
      "outputs": [
        {
          "internalType": "uint256",
          "name": "",
          "type": "uint256"
        }
      ],
      "stateMutability": "view",
      "type": "function"
    },
    {
      "inputs": [],
      "name": "NFT_AMOUNT",
      "outputs": [
        {
          "internalType": "uint256",
          "name": "",
          "type": "uint256"
        }
      ],
      "stateMutability": "view",
      "type": "function"
    },
    {
      "inputs": [],
      "name": "SILVER_THRESHOLD",
      "outputs": [
        {
          "internalType": "uint256",
          "name": "",
          "type": "uint256"
        }
      ],
      "stateMutability": "view",
      "type": "function"
    },
    {
      "inputs": [
        {
          "internalType": "address",
          "name": "to",
          "type": "address"
        },
        {
          "internalType": "uint256",
          "name": "tokenId",
          "type": "uint256"
        }
      ],
      "name": "approve",
      "outputs": [],
      "stateMutability": "nonpayable",
      "type": "function"
    },
    {
      "inputs": [
        {
          "internalType": "address",
          "name": "owner",
          "type": "address"
        }
      ],
      "name": "balanceOf",
      "outputs": [
        {
          "internalType": "uint256",
          "name": "",
          "type": "uint256"
        }
      ],
      "stateMutability": "view",
      "type": "function"
    },
    {
      "inputs": [],
      "name": "bitToken",
      "outputs": [
        {
          "internalType": "address",
          "name": "",
          "type": "address"
        }
      ],
      "stateMutability": "view",
      "type": "function"
    },
    {
      "inputs": [
        {
          "internalType": "uint256",
          "name": "nftIndex",
          "type": "uint256"
        }
      ],
      "name": "claimNFT",
      "outputs": [],
      "stateMutability": "nonpayable",
      "type": "function"
    },
    {
      "inputs": [
        {
          "internalType": "uint256",
          "name": "tokenId",
          "type": "uint256"
        }
      ],
      "name": "getApproved",
      "outputs": [
        {
          "internalType": "address",
          "name": "",
          "type": "address"
        }
      ],
      "stateMutability": "view",
      "type": "function"
    },
    {
      "inputs": [
        {
          "internalType": "address",
          "name": "user",
          "type": "address"
        }
      ],
      "name": "getOwnershipCount",
      "outputs": [
        {
          "internalType": "uint256[]",
          "name": "",
          "type": "uint256[]"
        }
      ],
      "stateMutability": "view",
      "type": "function"
    },
    {
      "inputs": [
        {
          "internalType": "address",
          "name": "owner",
          "type": "address"
        },
        {
          "internalType": "address",
          "name": "operator",
          "type": "address"
        }
      ],
      "name": "isApprovedForAll",
      "outputs": [
        {
          "internalType": "bool",
          "name": "",
          "type": "bool"
        }
      ],
      "stateMutability": "view",
      "type": "function"
    },
    {
      "inputs": [],
      "name": "name",
      "outputs": [
        {
          "internalType": "string",
          "name": "",
          "type": "string"
        }
      ],
      "stateMutability": "view",
      "type": "function"
    },
    {
      "inputs": [],
      "name": "owner",
      "outputs": [
        {
          "internalType": "address",
          "name": "",
          "type": "address"
        }
      ],
      "stateMutability": "view",
      "type": "function"
    },
    {
      "inputs": [
        {
          "internalType": "uint256",
          "name": "tokenId",
          "type": "uint256"
        }
      ],
      "name": "ownerOf",
      "outputs": [
        {
          "internalType": "address",
          "name": "",
          "type": "address"
        }
      ],
      "stateMutability": "view",
      "type": "function"
    },
    {
      "inputs": [
        {
          "internalType": "address",
          "name": "from",
          "type": "address"
        },
        {
          "internalType": "address",
          "name": "to",
          "type": "address"
        },
        {
          "internalType": "uint256",
          "name": "tokenId",
          "type": "uint256"
        }
      ],
      "name": "safeTransferFrom",
      "outputs": [],
      "stateMutability": "nonpayable",
      "type": "function"
    },
    {
      "inputs": [
        {
          "internalType": "address",
          "name": "from",
          "type": "address"
        },
        {
          "internalType": "address",
          "name": "to",
          "type": "address"
        },
        {
          "internalType": "uint256",
          "name": "tokenId",
          "type": "uint256"
        },
        {
          "internalType": "bytes",
          "name": "data",
          "type": "bytes"
        }
      ],
      "name": "safeTransferFrom",
      "outputs": [],
      "stateMutability": "nonpayable",
      "type": "function"
    },
    {
      "inputs": [
        {
          "internalType": "address",
          "name": "operator",
          "type": "address"
        },
        {
          "internalType": "bool",
          "name": "approved",
          "type": "bool"
        }
      ],
      "name": "setApprovalForAll",
      "outputs": [],
      "stateMutability": "nonpayable",
      "type": "function"
    },
    {
      "inputs": [
        {
          "internalType": "string",
          "name": "baseURI_",
          "type": "string"
        }
      ],
      "name": "setBaseURI",
      "outputs": [],
      "stateMutability": "nonpayable",
      "type": "function"
    },
    {
      "inputs": [
        {
          "internalType": "bytes4",
          "name": "interfaceId",
          "type": "bytes4"
        }
      ],
      "name": "supportsInterface",
      "outputs": [
        {
          "internalType": "bool",
          "name": "",
          "type": "bool"
        }
      ],
      "stateMutability": "view",
      "type": "function"
    },
    {
      "inputs": [],
      "name": "symbol",
      "outputs": [
        {
          "internalType": "string",
          "name": "",
          "type": "string"
        }
      ],
      "stateMutability": "view",
      "type": "function"
    },
    {
      "inputs": [
        {
          "internalType": "uint256",
          "name": "tokenId",
          "type": "uint256"
        }
      ],
      "name": "tokenURI",
      "outputs": [
        {
          "internalType": "string",
          "name": "",
          "type": "string"
        }
      ],
      "stateMutability": "view",
      "type": "function"
    },
    {
      "inputs": [
        {
          "internalType": "address",
          "name": "from",
          "type": "address"
        },
        {
          "internalType": "address",
          "name": "to",
          "type": "address"
        },
        {
          "internalType": "uint256",
          "name": "tokenId",
          "type": "uint256"
        }
      ],
      "name": "transferFrom",
      "outputs": [],
      "stateMutability": "nonpayable",
      "type": "function"
    }
  ],
  "bytecode": "0x608060405234801561000f575f80fd5b506040516131dd3803806131dd833981810160405281019061003191906102bc565b6040518060400160405280600981526020017f427261696e204e465400000000000000000000000000000000000000000000008152506040518060400160405280600481526020017f424e465400000000000000000000000000000000000000000000000000000000815250815f90816100ab9190610523565b5080600190816100bb9190610523565b50505080600a90816100cd9190610523565b508160085f6101000a81548173ffffffffffffffffffffffffffffffffffffffff021916908373ffffffffffffffffffffffffffffffffffffffff16021790555050506105f2565b5f604051905090565b5f80fd5b5f80fd5b5f73ffffffffffffffffffffffffffffffffffffffff82169050919050565b5f61014f82610126565b9050919050565b61015f81610145565b8114610169575f80fd5b50565b5f8151905061017a81610156565b92915050565b5f80fd5b5f80fd5b5f601f19601f8301169050919050565b7f4e487b71000000000000000000000000000000000000000000000000000000005f52604160045260245ffd5b6101ce82610188565b810181811067ffffffffffffffff821117156101ed576101ec610198565b5b80604052505050565b5f6101ff610115565b905061020b82826101c5565b919050565b5f67ffffffffffffffff82111561022a57610229610198565b5b61023382610188565b9050602081019050919050565b8281835e5f83830152505050565b5f61026061025b84610210565b6101f6565b90508281526020810184848401111561027c5761027b610184565b5b610287848285610240565b509392505050565b5f82601f8301126102a3576102a2610180565b5b81516102b384826020860161024e565b91505092915050565b5f80604083850312156102d2576102d161011e565b5b5f6102df8582860161016c565b925050602083015167ffffffffffffffff811115610300576102ff610122565b5b61030c8582860161028f565b9150509250929050565b5f81519050919050565b7f4e487b71000000000000000000000000000000000000000000000000000000005f52602260045260245ffd5b5f600282049050600182168061036457607f821691505b60208210810361037757610376610320565b5b50919050565b5f819050815f5260205f209050919050565b5f6020601f8301049050919050565b5f82821b905092915050565b5f600883026103d97fffffffffffffffffffffffffffffffffffffffffffffffffffffffffffffffff8261039e565b6103e3868361039e565b95508019841693508086168417925050509392505050565b5f819050919050565b5f819050919050565b5f61042761042261041d846103fb565b610404565b6103fb565b9050919050565b5f819050919050565b6104408361040d565b61045461044c8261042e565b8484546103aa565b825550505050565b5f90565b61046861045c565b610473818484610437565b505050565b5b818110156104965761048b5f82610460565b600181019050610479565b5050565b601f8211156104db576104ac8161037d565b6104b58461038f565b810160208510156104c4578190505b6104d86104d08561038f565b830182610478565b50505b505050565b5f82821c905092915050565b5f6104fb5f19846008026104e0565b1980831691505092915050565b5f61051383836104ec565b9150826002028217905092915050565b61052c82610316565b67ffffffffffffffff81111561054557610544610198565b5b61054f825461034d565b61055a82828561049a565b5f60209050601f83116001811461058b575f8415610579578287015190505b6105838582610508565b8655506105ea565b601f1984166105998661037d565b5f5b828110156105c05784890151825560018201915060208501945060208101905061059b565b868310156105dd57848901516105d9601f8916826104ec565b8355505b6001600288020188555050505b505050505050565b612bde806105ff5f395ff3fe608060405234801561000f575f80fd5b506004361061014b575f3560e01c80638da5cb5b116100c1578063c87b56dd1161007a578063c87b56dd14610389578063d84e9f92146103b9578063e4e0bc46146103d7578063e985e9c514610407578063f18785a814610437578063fe5c873a146104555761014b565b80638da5cb5b146102d95780638f53be1f146102f757806395d89b4114610315578063a22cb46514610333578063b88d4fde1461034f578063c1a0db301461036b5761014b565b806342842e0e1161011357806342842e0e1461020557806355f804b314610221578063569739741461023d5780636352211e1461025b57806369a2f0261461028b57806370a08231146102a95761014b565b806301ffc9a71461014f57806306fdde031461017f578063081812fc1461019d578063095ea7b3146101cd57806323b872dd146101e9575b5f80fd5b61016960048036038101906101649190611e16565b610471565b6040516101769190611e5b565b60405180910390f35b6101876104d1565b6040516101949190611ee4565b60405180910390f35b6101b760048036038101906101b29190611f37565b610560565b6040516101c49190611fa1565b60405180910390f35b6101e760048036038101906101e29190611fe4565b61057b565b005b61020360048036038101906101fe9190612022565b610591565b005b61021f600480360381019061021a9190612022565b610690565b005b61023b6004803603810190610236919061219e565b6106af565b005b610245610751565b60405161025291906121f4565b60405180910390f35b61027560048036038101906102709190611f37565b61075e565b6040516102829190611fa1565b60405180910390f35b61029361076f565b6040516102a091906121f4565b60405180910390f35b6102c360048036038101906102be919061220d565b61077c565b6040516102d091906121f4565b60405180910390f35b6102e1610832565b6040516102ee9190611fa1565b60405180910390f35b6102ff610857565b60405161030c91906121f4565b60405180910390f35b61031d61085c565b60405161032a9190611ee4565b60405180910390f35b61034d60048036038101906103489190612262565b6108ec565b005b6103696004803603810190610364919061233e565b610902565b005b610373610927565b60405161038091906121f4565b60405180910390f35b6103a3600480360381019061039e9190611f37565b610934565b6040516103b09190611ee4565b60405180910390f35b6103c1610a3f565b6040516103ce9190611fa1565b60405180910390f35b6103f160048036038101906103ec919061220d565b610a64565b6040516103fe9190612475565b60405180910390f35b610421600480360381019061041c9190612495565b610b56565b60405161042e9190611e5b565b60405180910390f35b61043f610be4565b60405161044c91906121f4565b60405180910390f35b61046f600480360381019061046a9190611f37565b610be9565b005b5f634906490660e01b7bffffffffffffffffffffffffffffffffffffffffffffffffffffffff1916827bffffffffffffffffffffffffffffffffffffffffffffffffffffffff191614806104ca57506104c982610e75565b5b9050919050565b60605f80546104df90612500565b80601f016020809104026020016040519081016040528092919081815260200182805461050b90612500565b80156105565780601f1061052d57610100808354040283529160200191610556565b820191905f5260205f20905b81548152906001019060200180831161053957829003601f168201915b5050505050905090565b5f61056a82610f56565b5061057482610fdc565b9050919050565b61058d8282610588611015565b61101c565b5050565b5f73ffffffffffffffffffffffffffffffffffffffff168273ffffffffffffffffffffffffffffffffffffffff1603610601575f6040517f64a0ae920000000000000000000000000000000000000000000000000000000081526004016105f89190611fa1565b60405180910390fd5b5f610614838361060f611015565b61102e565b90508373ffffffffffffffffffffffffffffffffffffffff168173ffffffffffffffffffffffffffffffffffffffff161461068a578382826040517f64283d7b00000000000000000000000000000000000000000000000000000000815260040161068193929190612530565b60405180910390fd5b50505050565b6106aa83838360405180602001604052805f815250610902565b505050565b60075f9054906101000a900473ffffffffffffffffffffffffffffffffffffffff1673ffffffffffffffffffffffffffffffffffffffff163373ffffffffffffffffffffffffffffffffffffffff161461073e576040517f08c379a0000000000000000000000000000000000000000000000000000000008152600401610735906125af565b60405180910390fd5b80600a908161074d919061276a565b5050565b681b1ae4d6e2ef50000081565b5f61076882610f56565b9050919050565b6802b5e3af16b188000081565b5f8073ffffffffffffffffffffffffffffffffffffffff168273ffffffffffffffffffffffffffffffffffffffff16036107ed575f6040517f89c62b640000000000000000000000000000000000000000000000000000000081526004016107e49190611fa1565b60405180910390fd5b60035f8373ffffffffffffffffffffffffffffffffffffffff1673ffffffffffffffffffffffffffffffffffffffff1681526020019081526020015f20549050919050565b60075f9054906101000a900473ffffffffffffffffffffffffffffffffffffffff1681565b601481565b60606001805461086b90612500565b80601f016020809104026020016040519081016040528092919081815260200182805461089790612500565b80156108e25780601f106108b9576101008083540402835291602001916108e2565b820191905f5260205f20905b8154815290600101906020018083116108c557829003601f168201915b5050505050905090565b6108fe6108f7611015565b8383611239565b5050565b61090d848484610591565b610921610918611015565b858585856113a2565b50505050565b681043561a882930000081565b606061093f82610f56565b505f60065f8481526020019081526020015f20805461095d90612500565b80601f016020809104026020016040519081016040528092919081815260200182805461098990612500565b80156109d45780601f106109ab576101008083540402835291602001916109d4565b820191905f5260205f20905b8154815290600101906020018083116109b757829003601f168201915b505050505090505f6109e461154e565b90505f8151036109f8578192505050610a3a565b5f82511115610a2c578082604051602001610a14929190612873565b60405160208183030381529060405292505050610a3a565b610a35846115de565b925050505b919050565b60085f9054906101000a900473ffffffffffffffffffffffffffffffffffffffff1681565b60605f60016009610a7591906128c3565b67ffffffffffffffff811115610a8e57610a8d61207a565b5b604051908082528060200260200182016040528015610abc5781602001602082028036833780820191505090505b5090505f600190505b60098111610b4c5760095f8573ffffffffffffffffffffffffffffffffffffffff1673ffffffffffffffffffffffffffffffffffffffff1681526020019081526020015f205f8281526020019081526020015f2054828281518110610b2d57610b2c6128f6565b5b6020026020010181815250508080610b4490612923565b915050610ac5565b5080915050919050565b5f60055f8473ffffffffffffffffffffffffffffffffffffffff1673ffffffffffffffffffffffffffffffffffffffff1681526020019081526020015f205f8373ffffffffffffffffffffffffffffffffffffffff1673ffffffffffffffffffffffffffffffffffffffff1681526020019081526020015f205f9054906101000a900460ff16905092915050565b600981565b60018110158015610bfb575060098111155b610c3a576040517f08c379a0000000000000000000000000000000000000000000000000000000008152600401610c31906129b4565b60405180910390fd5b5f6802b5e3af16b188000090506007821115610c6157681b1ae4d6e2ef5000009050610c78565b6002821115610c7757681043561a882930000090505b5b8060085f9054906101000a900473ffffffffffffffffffffffffffffffffffffffff1673ffffffffffffffffffffffffffffffffffffffff166370a08231336040518263ffffffff1660e01b8152600401610cd39190611fa1565b602060405180830381865afa158015610cee573d5f803e3d5ffd5b505050506040513d601f19601f82011682018060405250810190610d1291906129e6565b1015610d53576040517f08c379a0000000000000000000000000000000000000000000000000000000008152600401610d4a90612a5b565b60405180910390fd5b60085f9054906101000a900473ffffffffffffffffffffffffffffffffffffffff1673ffffffffffffffffffffffffffffffffffffffff16630d1118ce33836040518363ffffffff1660e01b8152600401610daf929190612a79565b5f604051808303815f87803b158015610dc6575f80fd5b505af1158015610dd8573d5f803e3d5ffd5b50505050610de6600b611644565b5f610df1600b611658565b9050610dfd3382611664565b610e0f81610e0a85611757565b611821565b60095f3373ffffffffffffffffffffffffffffffffffffffff1673ffffffffffffffffffffffffffffffffffffffff1681526020019081526020015f205f8481526020019081526020015f205f815480929190610e6b90612923565b9190505550505050565b5f7f80ac58cd000000000000000000000000000000000000000000000000000000007bffffffffffffffffffffffffffffffffffffffffffffffffffffffff1916827bffffffffffffffffffffffffffffffffffffffffffffffffffffffff19161480610f3f57507f5b5e139f000000000000000000000000000000000000000000000000000000007bffffffffffffffffffffffffffffffffffffffffffffffffffffffff1916827bffffffffffffffffffffffffffffffffffffffffffffffffffffffff1916145b80610f4f5750610f4e8261187b565b5b9050919050565b5f80610f61836118e4565b90505f73ffffffffffffffffffffffffffffffffffffffff168173ffffffffffffffffffffffffffffffffffffffff1603610fd357826040517f7e273289000000000000000000000000000000000000000000000000000000008152600401610fca91906121f4565b60405180910390fd5b80915050919050565b5f60045f8381526020019081526020015f205f9054906101000a900473ffffffffffffffffffffffffffffffffffffffff169050919050565b5f33905090565b611029838383600161191d565b505050565b5f80611039846118e4565b90505f73ffffffffffffffffffffffffffffffffffffffff168373ffffffffffffffffffffffffffffffffffffffff161461107a57611079818486611adc565b5b5f73ffffffffffffffffffffffffffffffffffffffff168173ffffffffffffffffffffffffffffffffffffffff1614611105576110b95f855f8061191d565b600160035f8373ffffffffffffffffffffffffffffffffffffffff1673ffffffffffffffffffffffffffffffffffffffff1681526020019081526020015f205f82825403925050819055505b5f73ffffffffffffffffffffffffffffffffffffffff168573ffffffffffffffffffffffffffffffffffffffff161461118457600160035f8773ffffffffffffffffffffffffffffffffffffffff1673ffffffffffffffffffffffffffffffffffffffff1681526020019081526020015f205f82825401925050819055505b8460025f8681526020019081526020015f205f6101000a81548173ffffffffffffffffffffffffffffffffffffffff021916908373ffffffffffffffffffffffffffffffffffffffff160217905550838573ffffffffffffffffffffffffffffffffffffffff168273ffffffffffffffffffffffffffffffffffffffff167fddf252ad1be2c89b69c2b068fc378daa952ba7f163c4a11628f55a4df523b3ef60405160405180910390a4809150509392505050565b5f73ffffffffffffffffffffffffffffffffffffffff168273ffffffffffffffffffffffffffffffffffffffff16036112a957816040517f5b08ba180000000000000000000000000000000000000000000000000000000081526004016112a09190611fa1565b60405180910390fd5b8060055f8573ffffffffffffffffffffffffffffffffffffffff1673ffffffffffffffffffffffffffffffffffffffff1681526020019081526020015f205f8473ffffffffffffffffffffffffffffffffffffffff1673ffffffffffffffffffffffffffffffffffffffff1681526020019081526020015f205f6101000a81548160ff0219169083151502179055508173ffffffffffffffffffffffffffffffffffffffff168373ffffffffffffffffffffffffffffffffffffffff167f17307eab39ab6107e8899845ad3d59bd9653f200f220920489ca2b5937696c31836040516113959190611e5b565b60405180910390a3505050565b5f8373ffffffffffffffffffffffffffffffffffffffff163b1115611547578273ffffffffffffffffffffffffffffffffffffffff1663150b7a02868685856040518563ffffffff1660e01b81526004016114009493929190612af2565b6020604051808303815f875af192505050801561143b57506040513d601f19601f820116820180604052508101906114389190612b50565b60015b6114bc573d805f8114611469576040519150601f19603f3d011682016040523d82523d5f602084013e61146e565b606091505b505f8151036114b457836040517f64a0ae920000000000000000000000000000000000000000000000000000000081526004016114ab9190611fa1565b60405180910390fd5b805181602001fd5b63150b7a0260e01b7bffffffffffffffffffffffffffffffffffffffffffffffffffffffff1916817bffffffffffffffffffffffffffffffffffffffffffffffffffffffff19161461154557836040517f64a0ae9200000000000000000000000000000000000000000000000000000000815260040161153c9190611fa1565b60405180910390fd5b505b5050505050565b6060600a805461155d90612500565b80601f016020809104026020016040519081016040528092919081815260200182805461158990612500565b80156115d45780601f106115ab576101008083540402835291602001916115d4565b820191905f5260205f20905b8154815290600101906020018083116115b757829003601f168201915b5050505050905090565b60606115e982610f56565b505f6115f361154e565b90505f8151116116115760405180602001604052805f81525061163c565b8061161b84611757565b60405160200161162c929190612873565b6040516020818303038152906040525b915050919050565b6001815f015f828254019250508190555050565b5f815f01549050919050565b5f73ffffffffffffffffffffffffffffffffffffffff168273ffffffffffffffffffffffffffffffffffffffff16036116d4575f6040517f64a0ae920000000000000000000000000000000000000000000000000000000081526004016116cb9190611fa1565b60405180910390fd5b5f6116e083835f61102e565b90505f73ffffffffffffffffffffffffffffffffffffffff168173ffffffffffffffffffffffffffffffffffffffff1614611752575f6040517f73c6ac6e0000000000000000000000000000000000000000000000000000000081526004016117499190611fa1565b60405180910390fd5b505050565b60605f600161176584611b9f565b0190505f8167ffffffffffffffff8111156117835761178261207a565b5b6040519080825280601f01601f1916602001820160405280156117b55781602001600182028036833780820191505090505b5090505f82602001820190505b600115611816578080600190039150507f3031323334353637383961626364656600000000000000000000000000000000600a86061a8153600a858161180b5761180a612b7b565b5b0494505f85036117c2575b819350505050919050565b8060065f8481526020019081526020015f20908161183f919061276a565b507ff8e1a15aba9398e019f0b49df1a4fde98ee17ae345cb5f6b5e2c27f5033e8ce78260405161186f91906121f4565b60405180910390a15050565b5f7f01ffc9a7000000000000000000000000000000000000000000000000000000007bffffffffffffffffffffffffffffffffffffffffffffffffffffffff1916827bffffffffffffffffffffffffffffffffffffffffffffffffffffffff1916149050919050565b5f60025f8381526020019081526020015f205f9054906101000a900473ffffffffffffffffffffffffffffffffffffffff169050919050565b808061195557505f73ffffffffffffffffffffffffffffffffffffffff168273ffffffffffffffffffffffffffffffffffffffff1614155b15611a87575f61196484610f56565b90505f73ffffffffffffffffffffffffffffffffffffffff168373ffffffffffffffffffffffffffffffffffffffff16141580156119ce57508273ffffffffffffffffffffffffffffffffffffffff168173ffffffffffffffffffffffffffffffffffffffff1614155b80156119e157506119df8184610b56565b155b15611a2357826040517fa9fbf51f000000000000000000000000000000000000000000000000000000008152600401611a1a9190611fa1565b60405180910390fd5b8115611a8557838573ffffffffffffffffffffffffffffffffffffffff168273ffffffffffffffffffffffffffffffffffffffff167f8c5be1e5ebec7d5bd14f71427d1e84f3dd0314c0f7b2291e5b200ac8c7c3b92560405160405180910390a45b505b8360045f8581526020019081526020015f205f6101000a81548173ffffffffffffffffffffffffffffffffffffffff021916908373ffffffffffffffffffffffffffffffffffffffff16021790555050505050565b611ae7838383611cf0565b611b9a575f73ffffffffffffffffffffffffffffffffffffffff168373ffffffffffffffffffffffffffffffffffffffff1603611b5b57806040517f7e273289000000000000000000000000000000000000000000000000000000008152600401611b5291906121f4565b60405180910390fd5b81816040517f177e802f000000000000000000000000000000000000000000000000000000008152600401611b91929190612a79565b60405180910390fd5b505050565b5f805f90507a184f03e93ff9f4daa797ed6e38ed64bf6a1f0100000000000000008310611bfb577a184f03e93ff9f4daa797ed6e38ed64bf6a1f0100000000000000008381611bf157611bf0612b7b565b5b0492506040810190505b6d04ee2d6d415b85acef81000000008310611c38576d04ee2d6d415b85acef81000000008381611c2e57611c2d612b7b565b5b0492506020810190505b662386f26fc100008310611c6757662386f26fc100008381611c5d57611c5c612b7b565b5b0492506010810190505b6305f5e1008310611c90576305f5e1008381611c8657611c85612b7b565b5b0492506008810190505b6127108310611cb5576127108381611cab57611caa612b7b565b5b0492506004810190505b60648310611cd85760648381611cce57611ccd612b7b565b5b0492506002810190505b600a8310611ce7576001810190505b80915050919050565b5f8073ffffffffffffffffffffffffffffffffffffffff168373ffffffffffffffffffffffffffffffffffffffff1614158015611da757508273ffffffffffffffffffffffffffffffffffffffff168473ffffffffffffffffffffffffffffffffffffffff161480611d685750611d678484610b56565b5b80611da657508273ffffffffffffffffffffffffffffffffffffffff16611d8e83610fdc565b73ffffffffffffffffffffffffffffffffffffffff16145b5b90509392505050565b5f604051905090565b5f80fd5b5f80fd5b5f7fffffffff0000000000000000000000000000000000000000000000000000000082169050919050565b611df581611dc1565b8114611dff575f80fd5b50565b5f81359050611e1081611dec565b92915050565b5f60208284031215611e2b57611e2a611db9565b5b5f611e3884828501611e02565b91505092915050565b5f8115159050919050565b611e5581611e41565b82525050565b5f602082019050611e6e5f830184611e4c565b92915050565b5f81519050919050565b5f82825260208201905092915050565b8281835e5f83830152505050565b5f601f19601f8301169050919050565b5f611eb682611e74565b611ec08185611e7e565b9350611ed0818560208601611e8e565b611ed981611e9c565b840191505092915050565b5f6020820190508181035f830152611efc8184611eac565b905092915050565b5f819050919050565b611f1681611f04565b8114611f20575f80fd5b50565b5f81359050611f3181611f0d565b92915050565b5f60208284031215611f4c57611f4b611db9565b5b5f611f5984828501611f23565b91505092915050565b5f73ffffffffffffffffffffffffffffffffffffffff82169050919050565b5f611f8b82611f62565b9050919050565b611f9b81611f81565b82525050565b5f602082019050611fb45f830184611f92565b92915050565b611fc381611f81565b8114611fcd575f80fd5b50565b5f81359050611fde81611fba565b92915050565b5f8060408385031215611ffa57611ff9611db9565b5b5f61200785828601611fd0565b925050602061201885828601611f23565b9150509250929050565b5f805f6060848603121561203957612038611db9565b5b5f61204686828701611fd0565b935050602061205786828701611fd0565b925050604061206886828701611f23565b9150509250925092565b5f80fd5b5f80fd5b7f4e487b71000000000000000000000000000000000000000000000000000000005f52604160045260245ffd5b6120b082611e9c565b810181811067ffffffffffffffff821117156120cf576120ce61207a565b5b80604052505050565b5f6120e1611db0565b90506120ed82826120a7565b919050565b5f67ffffffffffffffff82111561210c5761210b61207a565b5b61211582611e9c565b9050602081019050919050565b828183375f83830152505050565b5f61214261213d846120f2565b6120d8565b90508281526020810184848401111561215e5761215d612076565b5b612169848285612122565b509392505050565b5f82601f83011261218557612184612072565b5b8135612195848260208601612130565b91505092915050565b5f602082840312156121b3576121b2611db9565b5b5f82013567ffffffffffffffff8111156121d0576121cf611dbd565b5b6121dc84828501612171565b91505092915050565b6121ee81611f04565b82525050565b5f6020820190506122075f8301846121e5565b92915050565b5f6020828403121561222257612221611db9565b5b5f61222f84828501611fd0565b91505092915050565b61224181611e41565b811461224b575f80fd5b50565b5f8135905061225c81612238565b92915050565b5f806040838503121561227857612277611db9565b5b5f61228585828601611fd0565b92505060206122968582860161224e565b9150509250929050565b5f67ffffffffffffffff8211156122ba576122b961207a565b5b6122c382611e9c565b9050602081019050919050565b5f6122e26122dd846122a0565b6120d8565b9050828152602081018484840111156122fe576122fd612076565b5b612309848285612122565b509392505050565b5f82601f83011261232557612324612072565b5b81356123358482602086016122d0565b91505092915050565b5f805f806080858703121561235657612355611db9565b5b5f61236387828801611fd0565b945050602061237487828801611fd0565b935050604061238587828801611f23565b925050606085013567ffffffffffffffff8111156123a6576123a5611dbd565b5b6123b287828801612311565b91505092959194509250565b5f81519050919050565b5f82825260208201905092915050565b5f819050602082019050919050565b6123f081611f04565b82525050565b5f61240183836123e7565b60208301905092915050565b5f602082019050919050565b5f612423826123be565b61242d81856123c8565b9350612438836123d8565b805f5b8381101561246857815161244f88826123f6565b975061245a8361240d565b92505060018101905061243b565b5085935050505092915050565b5f6020820190508181035f83015261248d8184612419565b905092915050565b5f80604083850312156124ab576124aa611db9565b5b5f6124b885828601611fd0565b92505060206124c985828601611fd0565b9150509250929050565b7f4e487b71000000000000000000000000000000000000000000000000000000005f52602260045260245ffd5b5f600282049050600182168061251757607f821691505b60208210810361252a576125296124d3565b5b50919050565b5f6060820190506125435f830186611f92565b61255060208301856121e5565b61255d6040830184611f92565b949350505050565b7f4f574e45525f4f4e4c59000000000000000000000000000000000000000000005f82015250565b5f612599600a83611e7e565b91506125a482612565565b602082019050919050565b5f6020820190508181035f8301526125c68161258d565b9050919050565b5f819050815f5260205f209050919050565b5f6020601f8301049050919050565b5f82821b905092915050565b5f600883026126297fffffffffffffffffffffffffffffffffffffffffffffffffffffffffffffffff826125ee565b61263386836125ee565b95508019841693508086168417925050509392505050565b5f819050919050565b5f61266e61266961266484611f04565b61264b565b611f04565b9050919050565b5f819050919050565b61268783612654565b61269b61269382612675565b8484546125fa565b825550505050565b5f90565b6126af6126a3565b6126ba81848461267e565b505050565b5b818110156126dd576126d25f826126a7565b6001810190506126c0565b5050565b601f821115612722576126f3816125cd565b6126fc846125df565b8101602085101561270b578190505b61271f612717856125df565b8301826126bf565b50505b505050565b5f82821c905092915050565b5f6127425f1984600802612727565b1980831691505092915050565b5f61275a8383612733565b9150826002028217905092915050565b61277382611e74565b67ffffffffffffffff81111561278c5761278b61207a565b5b6127968254612500565b6127a18282856126e1565b5f60209050601f8311600181146127d2575f84156127c0578287015190505b6127ca858261274f565b865550612831565b601f1984166127e0866125cd565b5f5b82811015612807578489015182556001820191506020850194506020810190506127e2565b868310156128245784890151612820601f891682612733565b8355505b6001600288020188555050505b505050505050565b5f81905092915050565b5f61284d82611e74565b6128578185612839565b9350612867818560208601611e8e565b80840191505092915050565b5f61287e8285612843565b915061288a8284612843565b91508190509392505050565b7f4e487b71000000000000000000000000000000000000000000000000000000005f52601160045260245ffd5b5f6128cd82611f04565b91506128d883611f04565b92508282019050808211156128f0576128ef612896565b5b92915050565b7f4e487b71000000000000000000000000000000000000000000000000000000005f52603260045260245ffd5b5f61292d82611f04565b91507fffffffffffffffffffffffffffffffffffffffffffffffffffffffffffffffff820361295f5761295e612896565b5b600182019050919050565b7f494e56414c49445f4e46545f494e4445580000000000000000000000000000005f82015250565b5f61299e601183611e7e565b91506129a98261296a565b602082019050919050565b5f6020820190508181035f8301526129cb81612992565b9050919050565b5f815190506129e081611f0d565b92915050565b5f602082840312156129fb576129fa611db9565b5b5f612a08848285016129d2565b91505092915050565b7f494e53554646494349454e545f46554e445300000000000000000000000000005f82015250565b5f612a45601283611e7e565b9150612a5082612a11565b602082019050919050565b5f6020820190508181035f830152612a7281612a39565b9050919050565b5f604082019050612a8c5f830185611f92565b612a9960208301846121e5565b9392505050565b5f81519050919050565b5f82825260208201905092915050565b5f612ac482612aa0565b612ace8185612aaa565b9350612ade818560208601611e8e565b612ae781611e9c565b840191505092915050565b5f608082019050612b055f830187611f92565b612b126020830186611f92565b612b1f60408301856121e5565b8181036060830152612b318184612aba565b905095945050505050565b5f81519050612b4a81611dec565b92915050565b5f60208284031215612b6557612b64611db9565b5b5f612b7284828501612b3c565b91505092915050565b7f4e487b71000000000000000000000000000000000000000000000000000000005f52601260045260245ffdfea2646970667358221220579fac7adb067bd70c56785f32986cbd866beccf4e781bcd38321bbe9b362ccc64736f6c634300081a0033",
  "linkReferences": {},
  "deployedLinkReferences": {}
}